:1000000080312128003008007E1480312000111C2E
:100010000A280B281C282600290803191028112853
:1000200013280130A9022C080319172818281A28A8
:100030000130AC02200011108A31AE2280317E10D6
:100040000900803123285D3084009D308500CB304D
:100050008600003087000030FF0005308731F4272C
:1000600080310030840088308500543086000330B1
:1000700087000030FF000B308731F427803161307A
:1000800084009F308500A030860003308700003058
:10009000FF0023308731F4278031D83084002230AC
:1000A00085001830FE000130FF009D31A72580310A
:1000B000ED01EE01EF012100C201C301C401C50140
:1000C000C601C701C801C901CA012500EF012030DE
:1000D0008400033085002430FE000030FF009D3195
:1000E000A7258031C3308400033085002030FE0016
:1000F0000030FF009D31A72580317E10200088311F
:1001000058282100A7014C08BC004B08BB003B0845
:1001100086003C088700413106300106031D912806
:1001200092287A293B0886003C0887008030010627
:10013000031D9B289C287A293B0886003C088700E1
:100140004231403F2000DD00413FDE005E082100DB
:10015000B6003B0886003C08870042310108B70022
:100160003603031DB428B528D4289C302000C900CC
:100170009930CA009C308400993085000008DD0069
:10018000DE015D08CB005E08CC0021003B08860044
:100190003C0887004631403F2000CD00413FCE0063
:1001A0009331BF2380314E2C02303606031DD928EF
:1001B000DA28152937080319DE28DF28E3289D31BE
:1001C000682580314E2C37355D3E86000330870030
:1001D000403FAB00413FAC002C082000CA0021008A
:1001E0002B082000C90021002C082000DE0021007F
:1001F0002B082000DD0002305D0784005E08031834
:100200005E0A8500003FCB00013FCC0021003B0887
:1002100086003C0887004631403F2000CD00413F2A
:10022000CE009331BF2380314E2C03303606031DA0
:100230001A291B294929B830F00037089231D622F3
:10024000803171082100AE007008AD00AE1F292971
:100250002A292B29DF2839082000CA002100380864
:100260002000C90021002E082000CC0021002D080C
:100270002000CB0021003B0886003C088700463167
:10028000403F2000CD00413FCE009331BF2380315D
:100290004E2C3C08F1003B08F000A930F2009D31E3
:1002A0005325803171082100B0007008AF00B01FE5
:1002B0005A295B295C29DF282A082000CA0021006E
:1002C00029082000C900210030082000CC002100AE
:1002D0002F082000CB0021003B0886003C08870047
:1002E0004631403F2000CD00413FCE009331BF2337
:1002F00080314E2C3B0886003C0887004131053098
:100300000106031D842985299329C901C90A3B08CF
:1003100086003C088700423101082500EF009D312E
:10032000622580314E2C3B0886003C088700413115
:1003300009300106031D9D299E29B3293B0886002B
:100340003C08870042310108B10031089D31362553
:1003500080318931742180319D31622580312100C5
:100360003108CA004E2C3B0886003C08870041310A
:1003700008300106031DBD29BE29D629CA30200038
:10038000C9000030CA000130CB000030CC00210091
:100390003B0886003C0887004631403F2000CD00E6
:1003A000413FCE009331BF2380314E2C3B08860065
:1003B0003C08870041310108031DDF29E0298C2A10
:1003C0003B0886003C08870001081F39003A031DDE
:1003D000EA29EB290B2A9D31432580317108210040
:1003E000A6007008A500A5302000C9000030CA0092
:1003F0000230CB000030CC0021003B0886003C08D6
:1004000087004631403F2000CD00413FCE00933170
:10041000BF2380314E2C3B0886003C088700010832
:100420001F39023A031D152A162ADF283B088600C9
:100430003C088700443101080F39B2000530320210
:100440000318232A242ADF2832082000DD00DE01D9
:100450005D08F0005E08F1000730F2000030F300A4
:100460009E31C0268031A6302000DF000330E0003E
:1004700070085F0786007108603D87000108210051
:10048000B3003B0886003C0887004431403F200011
:10049000DD00413FDE00DD1B4E2A4F2A5D2A210090
:1004A000330801392000DD00DE015D082100A000D5
:1004B00020005E082100A1006A2A210033080239C9
:1004C0002000DD00DE015D082100A00020005E08A4
:1004D0002100A10020082104031D6F2A712A013088
:1004E000722A0030A300A401A3302000C90000300C
:1004F000CA000230CB000030CC0021003B0886004F
:100500003C0887004631403F2000CD00413FCE00EF
:100510009331BF2380314E2C3B0886003C08870076
:1005200041310B300106031D962A972AAE2A3B085B
:1005300086003C08870042310108F0003B08860035
:100540003C088700443101088031022080312100BD
:10055000A200A21FAC2AAD2A8F29DF283B08860003
:100560003C08870041310A300106031DB82AB92A28
:10057000E12A3B0886003C088700443101089D3190
:10058000412580312100B500B51FC72AC82AC92AD4
:10059000DF28B5302000C9000030CA000130CB0090
:1005A0000030CC0021003B0886003C088700463123
:1005B000403F2000CD00413FCE009331BF2380312A
:1005C0004E2C3B0886003C0887004131010303198B
:1005D000EA2AEB2AF62A3B0886003C0887004131CC
:1005E00003300106031DF52AF62A4C2CA801A80A9F
:1005F0003B0886003C08870001081F39023A031DAA
:10060000022B032B462C3B0886003C088700423116
:1006100016000104031D0D2B0E2B462C3B088600F3
:100620003C088700443101080F39BA003B088600B6
:100630003C088700443101088039B40005303A0293
:100640000318232B242B462C3B0886003C088700EC
:10065000413103300106031D2E2B2F2B3E2B340876
:100660000319332B342B392B3A0890313E2080313B
:100670002C2C3A089F31D52780312C2C34080319B3
:10068000422B432BB92B3A082000DD000230DD3528
:10069000FF3E031D472B5D35253E86008701210067
:1006A0003A082000DE00DF015E08F0005F08F1007C
:1006B0000730F2000030F3009E31C0268031A530B3
:1006C0002000E0000330E10070086007840071083A
:1006D000613D85000008810021003A082000DD000E
:1006E0000230DD35FF3E031D712B5D35243E860053
:1006F00087018101F730DD0021003A082000DE008B
:10070000DF015E08F0005F08F1000730F200003002
:10071000F3009E31C0268031A6302000E000033077
:10072000E1007008600786007108613D87005D0880
:100730008105FD30DD0021003A082000DE00DF01E8
:100740005E08F0005F08F1000730F2000030F300AF
:100750009E31C0268031A6302000E0000330E10049
:100760007008600786007108613D87005D0881059B
:100770002C2C3A082000DD000230DD35FF3E031D41
:10078000BD2B5D35213E8600870121003A082000FF
:10079000DE00DF015E08F0005F08F1000730F200C4
:1007A0000030F3009E31C0268031A4302000E000EC
:1007B0000330E1007008600784007108613D850026
:1007C0000008810021003A082000DD000230DD35FC
:1007D000FF3E031DE72B5D35203E860087018830F4
:1007E000810021003A082000DD00DE015D08F000F4
:1007F0005E08F1000730F2000030F3009E31C026A1
:100800008031A6302000DF000330E00070085F0771
:1008100086007108603D87000115FE30DD00210073
:100820003A082000DE00DF015E08F0005F08F100FA
:100830000730F2000030F3009E31C0268031A63030
:100840002000E0000330E1007008600786007108B6
:10085000613D87005D08810521003B0886003C085A
:1008600087004131033001060319372C392C013040
:100870003A2C0030F0003B0886003C0887004431E9
:1008800001089D31352580312100A8012808031D6C
:100890004A2C4B2CDF288F29A701A703210027080A
:1008A000080020005F0886006008870044310108C6
:1008B0002100B90020005F088600600887004131F0
:1008C0000108031D642C652C872C5F0886006008D6
:1008D000870021300106031D6E2C6F2C872C5F08CA
:1008E0008600600887004631403FF000413FF1003C
:1008F000210039089D313D2584312100A800A81F21
:10090000822C832C852CFF30282F0030282F5F0865
:1009100086006008870041310103031D902C912C53
:10092000FE2C5F08860060088700A1300106031DC9
:100930009A2C9B2CFE2C5F088600600887004631AD
:10094000403FF000413FF100AF30F200B130F30022
:10095000B330F400210039089D31492584317108F4
:100960002100B8007008B700B81FB72CB82CB92CFC
:10097000832C20005F088600600887004631403FD6
:10098000E100413FE200620821003802031DCC2C47
:100990002000610821003702031CCF2CD02CDC2C56
:1009A00020005F088600600887004631403F210034
:1009B000A000413FA100E02C3808A1003708A000AA
:1009C00021082000D900210020082000D8002100A3
:1009D00032082000DB00210031082000DA0021006D
:1009E00034082000DD00210033082000DC00210055
:1009F0002F0889009E31DF268431852C5F08860010
:100A000060088700413102300106031D082D092DC1
:100A10003E2D5F0886006008870021300106031D17
:100A2000122D132D3E2D5F0886006008870042318D
:100A30001600013AE1001600E1040319202D212DD2
:100A4000222D832C210039082000EF005F0886004A
:100A500060088700413101082600AE000230F00036
:100A60000030F1009A30F2001030F3000030F40052
:100A7000F5003B309E3120268431852C5F088600AE
:100A800060088700413104300106031D482D492DBF
:100A90007E2D5F0886006008870021300106031D57
:100AA000522D532D7E2D5F0886006008870042314D
:100AB0001600013AE1001600E1040319602D612DD2
:100AC000622D832C210039082000EF005F0886008A
:100AD00060088700413101082600AE000230F000B6
:100AE0000030F1009A30F2001030F3000030F400D2
:100AF000F5003B309E3120268431852C5F0886002E
:100B000060088700413103300106031D882D892DBF
:100B1000F62D5F08860060088700A1300106031DDE
:100B2000922D932DF62D5F088600600887004231D4
:100B30001600013AE1001600E1040319A02DA12DD1
:100B4000A22D832CB530F000B630F1002100390819
:100B50009D313B2584312100A900A91FB02DB12D65
:100B6000B22D832C36082000E100E201E135E20DD0
:100B70006108210035042600BB0020006208260021
:100B8000BC0020005F088600600887004631403FB7
:100B9000E100413FE20000306202023003196102CD
:100BA000031CD32DD42DDA2D02302100A2000030F9
:100BB000A300E42D5F088600600887004631403FAF
:100BC0002100A200413FA30023082000D9002100FA
:100BD00022082000D8000030DA00DB000030DC0002
:100BE000DD003B309E31DF268431852C5F08860096
:100BF00060088700413120300106031D002E012EC0
:100C0000412E5F0886006008870021300106031D21
:100C10000A2E0B2E412E210039082000EF005F081C
:100C20008600600887004631403FE100413FE20016
:100C300000306202073003196102031C202E212EAE
:100C4000272E07302100A4000030A500312E5F08B8
:100C50008600600887004631403F2100A400413FE4
:100C6000A5002508F1002408F000C130F2001D3075
:100C7000F3000030F400F5003B309E312026843133
:100C8000852C5F088600600887004131213001060D
:100C9000031D4B2E4C2E992E5F088600600887009E
:100CA000A1300106031D552E562E992E3B30F00023
:100CB000210039089D31EF2584312100AA00AA1FA7
:100CC000622E632E642E832C20005F08860060084D
:100CD00087004631403FE100413FE20000306202C0
:100CE000073003196102031C762E772E7D2E073004
:100CF0002100A6000030A700872E5F08860060084C
:100D000087004631403F2100A600413FA700270849
:100D10002000D900210026082000D8000030DA0089
:100D2000DB000030DC00DD003B309E31DF2684310B
:100D3000852C5F088600600887004131223001065B
:100D4000031DA32EA42EEF2E5F08860060088700E7
:100D500021300106031DAD2EAE2EEF2E5F0886005A
:100D6000600887004231403FE100413FE2006118E6
:100D7000BA2EBC2E0130BD2E00302100AC00200068
:100D80005F088600600887004231403FE100413F34
:100D9000E200E118CC2ECE2E0130CF2E0030210003
:100DA000AD002C08F0002D08F10039089D313F25D9
:100DB00084312100AB00AB1FDE2EDF2EE02E832C12
:100DC00000302000D800D9000030DA00DB0000300D
:100DD000DC00DD0003019E31DF268431852C5F08B5
:100DE000860060088700413123300106031DF92E7B
:100DF000FA2E832C5F0886006008870021300106E8
:100E0000031D032F042F832C5F08860060088700D2
:100E10004231403FF000413FF100210039089E314E
:100E2000352684312100AE00AE1F172F182F192F41
:100E3000832C00302000D800D9000030DA00DB001D
:100E40000030DC00DD0003019E31DF268431852C7B
:100E5000080025003708C3003608C2003A083B04E2
:100E6000031D332F342F352FF32F420886004308FC
:100E70008700380881003A084207BC003B08433D20
:100E8000BD003C08FF3EBE00FF303D3DBF003E08B8
:100E900086003F0887003808810000303B0203309D
:100EA00003193A020318552F562F572FF32F4208D4
:100EB000013EBC000030433DBD003C0886003D08BB
:100EC0008700380881004208023EBC000030433DE4
:100ED000BD003C0886003D088700380881003A08BC
:100EE0004207BC003B08433DBD003C08FE3EBE003F
:100EF000FF303D3DBF003E0886003F0887003808B0
:100F000081003A084207BC003B08433DBD003C0855
:100F1000FD3EBE00FF303D3DBF003E0886003F085D
:100F200087003808810000303B02073003193A027D
:100F300003189B2F9C2F9D2FF32F4208033EBC00CC
:100F40000030433DBD003C0886003D08870038085E
:100F500081003A084207BC003B08433DBD003C0805
:100F6000FC3EBE00FF303D3DBF003E0886003F080E
:100F700087003808810000303B02093003193A022B
:100F80000318C32FC42FC52FF32F4209BC004309F8
:100F9000BD00BC0A0319BD0A03303C05C000003087
:100FA0003D05C1004008C2074108C33D4008BA02E0
:100FB0004108BB3BFC30BA05FF30BB05ED2F4208B2
:100FC000860043088700380881000130BA020030EB
:100FD000BB3B0130C2070030C33D3A083B04031D50
:100FE000F22FF32FDF2F0800FE0012001E00013049
:100FF000FE020030FF3B7F087E04031DF52F003406
:101000000034C234013400340034003408348B34EA
:1010100099340034983425003D08CD003C08CC00BC
:1010200020304D02003003194C02031C18281928E7
:101030001E284D08BD004C08BC0057284D08CA00AA
:101040004C08CB004B087F39BE00BF014B088039EC
:10105000C000C1014A08C200C301C235C30D400827
:101060004207C4004108433DC50044084504031D30
:101070003A283C2801303D280030C600C701460808
:10108000B6004708B7005030B8000030B9009E31B4
:10109000FF26883125003E083607C8003F08373D47
:1010A000C9004808E03EBC001F30493DBD000800B3
:1010B00023008C018E019D317D2588319231722271
:1010C00088319D31FF2588319D31912588319D31B1
:1010D00058258831B3302500B6001D30B7009D314A
:1010E000D02588318B1726002908031978287928FC
:1010F0007C2822000E117E2822000E159D314625E7
:101100008831003A031D85288628872873280230F5
:101110009E31A2268831003A031D8F289028B928D5
:101120000230903100208831003A0319982899281C
:10113000B92852302500BC0002309031CA208831D5
:101140002600CD00CE014D08CF004E08D000530838
:10115000C5005208C4005008C7004F08C6009631A9
:101160006F268831023095310625883105302600FA
:10117000A9002000911EBD28BE28032923009D1C24
:10118000C228C328CA281D1219082600D10023002E
:101190001D16CD2819082600D10026002D08C33EB3
:1011A000860003308700510881000130CD004D08D2
:1011B000AD0720302D02031CDE28DF28FF28043075
:1011C0009E3184268831003A031DE728E828FC2850
:1011D000C3302500CB000330CC0026002D08CD0005
:1011E000CE014D082500CD0026004E082500CE007A
:1011F000043090316B2088312600AD010129023086
:10120000AC000530A90026002C08031D0829092977
:1012100024292D0803190D290E292429C33025005E
:10122000CB000330CC0026002D08CD00CE014D08A8
:101230002500CD0026004E082500CE000430903158
:101240006B2088312600AD012B08031D2829292990
:10125000472904309E31A2268831003A031D3129E6
:10126000322947290430903100208831003A03198F
:101270003A293B29472942302500BC0004309031EF
:10128000CA2088312600AB00AA010530A900200041
:10129000111E4B294C29732826002B0803195129AC
:1012A000522973282A08CD00CE014D084207860036
:1012B0004E08433D8700010823009A0001302600B4
:1012C000CD004D08AA072B082A02031C68296929AA
:1012D0006E29AB0104309531062588310530260092
:1012E000A9007328803121283D000E172100CF016D
:1012F0002000DC015C08D400D5015408F00055083A
:10130000F1000730F2000030F3009E31C026893131
:10131000A6302000D6000330D70070085607D8004A
:101320007108573DD90058088600590887000430D5
:1013300081000130D4005408DC0705305C02031C36
:10134000A229A3297A292030F0000030F1000030D2
:10135000F200F3002830F4000030F5009731362712
:10136000893121004C08F7004B08F60091316021CB
:10137000893177082000A3007608A2000830A10078
:101380008030A00021004E08F7004D08F600913192
:101390006021893177082000A7007608A600083070
:1013A000A500A401DC01DC0A5C08D400D5015408C6
:1013B000F0005508F1000730F2000030F3009E31D4
:1013C000C0268931A0302000D6000330D700700835
:1013D000560786007108573D8700403FDA00413FBD
:1013E000DB005B08F7005A08F60091316021893173
:1013F00020005C08D4000230D435FF3E031DFC29D8
:101400005435223E860087017608C03F7708C13FE9
:101410005C08D4000230D435FF3E031D0B2A54353E
:10142000213E860087015C08D500D6015508F000F2
:101430005608F1000730F2000030F3009E31C0265C
:101440008931A4302000D7000330D8007008570736
:1014500084007108583D8500000881005C08D400B4
:101460000230D435FF3E031D312A5435203E86001C
:101470008701883081005C08D400D5015408F00051
:101480005508F1000730F2000030F3009E31C0260D
:101490008931A2302000D6000330D70070085607EB
:1014A00086007108573D8700403FDA00413FDB006E
:1014B0005B08F7005A08F60091316021893120005D
:1014C0005C08D4000230D435FF3E031D632A543536
:1014D000263E860087017608C03F7708C13F5C083A
:1014E000D4000230D435FF3E031D722A5435253E08
:1014F000860087015C08D500D6015508F000560823
:10150000F1000730F2000030F3009E31C02689312F
:10151000A5302000D7000330D8007008570784009A
:101520007108583D8500000881005C08D400023035
:10153000D435FF3E031D982A5435243E860087018A
:1015400081010130D4005408DC0705305C02031C23
:10155000AA2AAB2AD4293D000E1308003D00101C16
:10156000B22AB32ABB2A9D3134258A3192310F2207
:101570008A313D001010901EBE2ABF2AF42A013085
:101580002100BF000030C00098302000E8000E307D
:10159000E90021003F0820006807EA002100400818
:1015A0002000693DEB006A082100BD0020006B08A7
:1015B0002100BE003D0886003E0887000110013072
:1015C000BF070030C03D4008803A2000E80080306E
:1015D0006802031DEE2A053021003F02031CF12A98
:1015E000F22AC42A3D009012901DF72AF82AD82B1F
:1015F000921DFB2AFC2AD82B0F0C2000E800E80CD7
:10160000680C0F39003A031D062B072B332B3D00C6
:101610000F190B2B0C2B332B2000200C890C0F39AE
:101620002100C1000D304106031D172B182B1C2B68
:101630009131AD218A312F2B09304106031D212B19
:10164000222B232B2F2B4103031D272B282B2C2B45
:101650009531B2258A312F2B9D3168258A319D31F4
:101660006E258A31D62B3D000F0C2000E800E80CD7
:10167000680C0F39003A031D3E2B3F2B482B3D00D1
:101680000F1D432B442B482B943160248A31D62BD9
:101690003D000F0C2000E800E80C680C0F39003A00
:1016A0000319532B542BD62B3D000F0C2000E800C0
:1016B000E80C680C0F39E900053069020318612B4A
:1016C000622BD62B3D000F1D662B672B9F2B0F0C1B
:1016D0002000E800E80C680C0F39E900EA0169080D
:1016E000F0006A08F1000730F2000030F3009E318C
:1016F000C0268A31A6302000EB000330EC007008D1
:101700006B07860071086C3D8700811C882B892B34
:10171000942B3D000F0C2000E800E80C680C0F39FA
:1017200091312C218A31D62B3D000F0C2000E8008E
:10173000E80C680C0F399D3131258A31D62B0F0CFE
:101740002000E800E80C680C0F39E900EA0169089C
:10175000F0006A08F1000730F2000030F3009E311B
:10176000C0268A31A6302000EB000330EC00700860
:101770006B07860071086C3D8700011CC02BC12BD4
:10178000CC2B3D000F0C2000E800E80C680C0F3952
:101790009E314D268A31D62B3D000F0C2000E800EB
:1017A000E80C680C0F399D3132258A313D009011CB
:1017B000101FDB2BDC2BE12B9D3133258A313D00C3
:1017C00010132000121DE52BE62BE72B1211080049
:1017D0003D000E172100CF012500D6015608CE008E
:1017E000CF014E08B6004F08B7000730B8000030F0
:1017F000B9009E31FF268B31A6302500D000033082
:10180000D10036085007D2003708513DD3005208A6
:10181000860053088700043081000130CE004E0856
:10182000D60705305602031C162C172CEE2B203041
:10183000B6000030B7000030B800B9002830BA0058
:101840000030BB00873129278B3121004C0825004F
:10185000BD0021004B082500BC0088310B208B31D6
:1018600025003D082000A30025003C082000A20020
:101870000830A1008030A00021004E082500BD00E6
:1018800021004D082500BC0088310B208B3125003C
:101890003D082000A70025003C082000A6000830D5
:1018A000A500A4012500D601D60A5608CE00CF0116
:1018B0004E08B6004F08B7000730B8000030B90036
:1018C0009E31FF268B31A0302500D0000330D1009F
:1018D0003608500786003708513D8700403FD40046
:1018E000413FD5005508BD005408BC0088310B208D
:1018F0008B3125005608CE000230CE35FF3E031D49
:101900007D2C4E35223E860087013C08C03F3D08B5
:10191000C13F5608CE000230CE35FF3E031D8C2C51
:101920004E35213E860087015608CF00D0014F0872
:10193000B6005008B7000730B8000030B9009E313B
:10194000FF268B31A4302500D1000330D2003608A9
:10195000510784003708523D850000088100560871
:10196000CE000230CE35FF3E031DB22C4E35203E58
:1019700086008701883081005608CE00CF014E08CE
:10198000B6004F08B7000730B8000030B9009E31EC
:10199000FF268B31A2302500D0000330D10036085D
:1019A000500786003708513D8700403FD400413F33
:1019B000D5005508BD005408BC0088310B208B3180
:1019C00025005608CE000230CE35FF3E031DE42C24
:1019D0004E35263E860087013C08C03F3D08C13F8A
:1019E0005608CE000230CE35FF3E031DF32C4E3597
:1019F000253E860087015608CF00D0014F08B6006B
:101A00005008B7000730B8000030B9009E31FF26FB
:101A10008B31A5302500D1000330D20036085107A4
:101A200084003708523D8500000881005608CE002A
:101A30000230CE35FF3E031D192D4E35243E860063
:101A4000870181010130CE004E08D60705305602CD
:101A5000031C2B2D2C2D552C3D000E1308002500AA
:101A600055085307DD005608543DDE00F52F530896
:101A700086005408870041310108ED00BB2F6D1826
:101A8000422D452D22008E15472D22008E11F02F5C
:101A9000ED1C4B2D4C2D572D6D184F2D522D220026
:101AA0000C16542D22000C1221000C12F02F2100D4
:101AB0000C16F02FED1C5D2D5E2D692D6D18612D1E
:101AC000642D22008C16662D22008C1221008C12AF
:101AD000F02F21008C16F02FEC0121000C16952D13
:101AE000EE0122008C160430890B742D22008C121A
:101AF0000430890B792D20000C0E01392500D70008
:101B00006C355704EC000130D7005708EE07083059
:101B10006E02031C8C2D8D2D712D6C08D2002600B9
:101B200025088A0024080A008D3101302500ED02C5
:101B30006D0A031D9C2D9D2D702DF02F21000C1280
:101B4000CE2D530886005408870042310108EC006E
:101B50000130D3070030D43DEE01EC1BB02DB32D86
:101B600022000C16B52D22000C120430890BB62D64
:101B700022008C160430890BBB2D03102500EC0DC0
:101B800022008C120C1201302500D7005708EE07F6
:101B900008306E02031CCD2DCE2DAD2D0130250059
:101BA000ED026D0A031DD52DD62DA12D0330E100C8
:101BB000DC2D0430890BDA2D01302500E102610AA9
:101BC000031DE32DE42DD92DF02FA12E2600320880
:101BD0002500B600260031089031FA208D3126000C
:101BE00033082500E200F72D0430890BF52D013074
:101BF0002500E202620A031DFE2DFF2DF42D2100B7
:101C00000C16260037089F313F278D312500EC0147
:101C1000EB01EE01362E0430890B0C2E22008C16BF
:101C20000430890B112E22008C1220000C0E013979
:101C30002500D7006C355704EC0007306E05D7003F
:101C400007305706031D252E262E322E6B08D93E4F
:101C50008600023087006C0881000130D7005708E9
:101C6000EB07EC010130D7005708EE0726003808D3
:101C700025006E02031C3D2E3E2E0B2E6E080739EA
:101C80000319432E442E592E6E080739083C890A41
:101C90004B2E0310EC0DFF3E031D492E6B08D93E61
:101CA0008600023087006C0881000130D700570899
:101CB000EB07260039089F313F278D312600360873
:101CC0002500E300662E0430890B642E01302500C8
:101CD000E302630A031D6D2E6E2E632E2600350867
:101CE0002500B600260034089031FA208D312600F8
:101CF0003A082500E4007F2E0430890B7D2E013048
:101D00002500E402640A031D862E872E7C2EEE0138
:101D10009B2E6E08D93E8600023087000108D20053
:101D2000260025088A0024080A008E31013025008B
:101D3000D7005708EE076B086E02031CA02EA12ED9
:101D4000892E0130ED026D0A031DA72EA82EE62D67
:101D5000F02F302F260032082500B600260031086B
:101D60009031FA208D31260033082500E500BB2E86
:101D70000430890BB92E01302500E502650A031DE8
:101D8000C22EC32EB82E22000C12260037089F3117
:101D90003F278D312500EE01F82E6E080739031D0F
:101DA000D22ED32EDE2E53088600540887004231EF
:101DB0000108EC000130D3070030D43DEC1BE12ECC
:101DC000E42E22000C16E62E22000C120310250031
:101DD000EC0D0430890BEA2E22008C160430890B9E
:101DE000EF2E22008C1201302500D7005708EE0795
:101DF0002600380825006E02031CFF2E002FCD2E72
:101E000022000C12260039089F313F278D31260011
:101E100036082500E6000F2F0430890B0D2F013006
:101E20002500E602660A031D162F172F0C2F260029
:101E300035082500B600260034089031FA208D318F
:101E400026003A082500E700282F0430890B262FAA
:101E500001302500E702670A031D2F2F302F252FA1
:101E60000130ED026D0A031D362F372FAA2EF02FF9
:101E70006D08E8003E2F0430890B3C2F013025000F
:101E8000E802680A031D452F462F3B2FF02F562FDF
:101E90000A30E9004E2F0430890B4C2F0130250009
:101EA000E902690A031D552F562F4B2F0130ED0211
:101EB0006D0A031D5C2F5D2F482FF02F6D08D70092
:101EC000D8015708B6005808B7000A30B8000030EB
:101ED000B9009E31FF268D3125003708E000360815
:101EE000DF00802F6430EA00782F0430890B762FD2
:101EF00001302500EA026A0A031D7F2F802F752F0B
:101F00000130DF020030E03B5F0A031D8B2F600AC7
:101F1000031D8B2F8C2F722FF02F6D08D2002600FF
:101F200025088A0024080A008F31F02F6D08303E02
:101F3000860003308700530884005408850002316E
:101F4000000881000130D3070030D43DF02F30303D
:101F5000B6000330B7000030B800B9000B30BA004B
:101F60000030BB00873129278D3101302500D30295
:101F70000030D43BF02F5308860054088700010836
:101F8000D700D8015808003A0319C72FF02F570877
:101F9000013A03193F2D033A0319482D013A031959
:101FA0005A2D073A03196C2D013A03199E2D033A55
:101FB0000319E52D013A0319A92E0F3A0319382FF9
:101FC000013A0319472F033A03195E2F013A031907
:101FD0008D2F073A0319962F013A0319A72FF02FD7
:101FE00002302500D3070030D43D5E085402031DA3
:101FF000FB2F5D085302031CFE2FFF2F372D080017
:102000002500B7003708B6000230B635FF3E031D85
:1020100005283635203E860087010310811F0314F2
:102020000030093D080025003908BF003808BE000F
:102030003708BD003608BC0031283E0884003F0840
:1020400085000008C0000130BE070030BF3D3C08DD
:1020500086003D088700400881000130BC07003041
:10206000BD3D0130BA020030BB3B3A0A031D3C289B
:102070003B0A031D3C283D281D280800FC007C0865
:102080000319432844286A2805307C02031C492888
:102090004A284B286A287C082000C800C901480843
:1020A000F0004908F1000730F2000030F3009E31E3
:1020B000C0269031A6302000CA000330CB00700843
:1020C0004A07860071084B3D870081147C089131D6
:1020D0002C21903108002500D100250051089E31A7
:1020E0000F269031003A031D762877286D282500A9
:1020F00051089F311F27903125003D08D0003C0832
:10210000CF005008B7004F08B6004C08B9004B0884
:10211000B8004E08BB004D08BA0090311320903132
:1021200025004E08C2004D08C100510893314623D6
:10213000903108007208031D9E289F28A128FF30B7
:10214000C92826003B18A528A7280130A828003058
:10215000F500BB18AC28AE280130AF280030F600DF
:1021600002302E06031DB528B628C0287508F000D9
:102170007608F10020006F089D3139259031C9287B
:102180007508F0007608F10020006F089D313725B2
:10219000903108002500C1004108BD00BE013D0886
:1021A000B6003E08B7000730B8000030B9009E31D5
:1021B000FF269031A0302500BF000330C000360854
:1021C0003F0786003708403D87003C088400033005
:1021D0008500403F803F413F813F4108BD000230C4
:1021E000BD35FF3E031DF0283D35213E86008701A9
:1021F000010808002500BA0021000C122500B801D2
:10220000B9011E292500BA1B0629092922000C162E
:102210000B2922000C120430890B0C2922008C1689
:102220000430890B112903102500BA0D22008C12ED
:102230000C1201302500B8070030B93D3908803A4A
:10224000B70080303702031D272936083802031CE7
:102250002A292B2902290800FB007B08F6000230FE
:10226000F635FF3E031D30297635253E8600870171
:102270007B08F700F8017708F0007808F1000730D4
:10228000F2000030F3009E31C0269131A530F900F4
:102290000330FA0070087907840071087A3D8500E0
:1022A000000881007B08F6000230F635FF3E031D72
:1022B00055297635243E8600870184308100080048
:1022C0007708FB007608FA0020307B020030031903
:1022D0007A02031C6C296D2972297B08F7007A08A1
:1022E000F600AC297B08F8007A08F90079087F39F4
:1022F0002000C800C90179088039CA00CB017808DC
:10230000CC00CD01CC35CD0D4A084C07CE004B0892
:102310004D3DCF004E084F04031D8F2991290130F8
:1023200092290030D000D1015008F0005108F1008E
:102330005030F2000030F3009E31C0269131200071
:1023400048087007D2004908713DD3005208E03EAA
:10235000F6001F30533DF700080021004C08200014
:10236000E70021004B082000E600660886006708A9
:1023700087000030811B01302100C6009D314E25B1
:1023800091312000A41FC529C629C9290830A500FC
:10239000A4012100440845040319CF29D029E629C6
:1023A00020006D086E040319D629D729E329F2010C
:1023B00021004308F4004208F30020006E088A0060
:1023C0006D080A0091319D31862591312000660803
:1023D000860067088700010E890C0339003A031D47
:1023E000F229F329FC298031812091312000E50078
:1023F000E51FFB29FC290C2A6708E4006608E300B6
:102400009D31742591312000E500E51F082A092A35
:102410000C2A9D31682591313D000E1208003D00C7
:1024200011109110920197018E151116111590112E
:10243000901190119011900192159216121412178A
:102440009830F0000E30F1000030F200F300103050
:10245000F4000030F5009731362792313D00181610
:1024600098111815981418102000DF01DF0A5F0872
:10247000983EDD00DE010E30DE3D5D08E0005E08C6
:10248000E100600886006108870001166008860088
:1024900061088700811560088600610887000115C2
:1024A0006008860061088700811460088600610862
:1024B000870001100130DD005D08DF0705305F0295
:1024C000031C632A642A372A3D0096012100C901B2
:1024D000CA018931742192319D31862592312100C2
:1024E000121508003D0011109110920197018E15F0
:1024F00011161115901190119011901190019215D3
:1025000092161214121798302500B6000E30B7003C
:102510000030B800B9001030BA000030BB0087317D
:10252000292792313D001816981118159814181083
:102530002500D901D90A5908983ED700D8010E3094
:10254000D83D5708DA005808DB005A0886005B08B7
:10255000870001165A0886005B08870081155A0813
:1025600086005B08870001155A0886005B08870013
:1025700081145A0886005B08870001100130D700DB
:102580005708D90705305902031CC72AC82A9B2AB5
:102590003D0096012100C901CA018B31E823923127
:1025A0009D319C259231210012150800F20072081D
:1025B000031DDB2ADC2AE82A7008860087018730A1
:1025C000C03F9930C13F0430F0000030F100452B8E
:1025D0007203031DEC2AED2AF92A70088600870190
:1025E000FB30C03F9830C13F3030F0000030F10088
:1025F000452B02307206031DFE2AFF2A0B2B7008A2
:10260000860087016D30C03F9930C13F1A30F0001D
:102610000030F100452B03307206031D102B112BE7
:102620001D2B7008860087015130C03F9930C13F93
:102630001C30F0000030F100452B04307206031D01
:10264000222B232B2F2B7008860087012B30C03FB5
:102650009930C13F2630F0000030F100452B0530A5
:102660007206031D342B352B412B70088600870121
:102670008330C03F9830C13F7830F0000030F10027
:10268000452BFF30F000FF30F10008002500C900A5
:1026900021004A0803194D2B4E2BBE2B250049085B
:1026A0009E3184269331003A031D572B582BBE2BA5
:1026B00025004908C3000230C335FF3E031D5C2BD3
:1026C0004335243ECA004908C300C4014308B6008C
:1026D0004408B7000730B8000030B9009E31FF262B
:1026E0009331A6302500C5000330C60036084507E3
:1026F00086003708463D870081197F2B812B0130EA
:10270000822B0030C8004A088600870181014808F2
:1027100003198B2B8C2B972B4A0A860087014108C3
:1027200081004A0886008701C8308100A12B4A0A2F
:1027300086008701410881004A08860087018830A9
:1027400081000830C3004908C400C5014408B60030
:102750004508B7000730B8000030B9009E31FF26A9
:102760009331A6302500C6000330C700360846075F
:1027700086003708473D870043088106080000307F
:1027800020004C02083003194B02031CC82BC92B34
:10279000CE2B0830D1000030D200D22B4C08D20012
:1027A0004B08D1005108D7005708CF00D0014E0880
:1027B0005002031DDD2B4D084F02031CE02BE12BC3
:1027C000E62B4E08D4004D08D300ED2B5708CF0060
:1027D000D0014F08D3005008D4005308D7004E084A
:1027E0004C02031DF52B4D084B02031CF82BFA2B52
:1027F0000130FB2B00302100C800200057080319CE
:10280000022C032C172C21004E08F1004D08F0007B
:1028100020004A08F3004908F2005708CF00D00111
:102820004F08F4005008F5009F31AB27933120008A
:102830005708CF00D0014F0849072600A600200006
:1028400050084A3D2600A70020004C084E02031DF8
:102850002B2C4B084D02031C2E2C2F2C342C4C08F7
:10286000D6004B08D500382C4E08D6004D08D500B0
:102870005708CF00D0014F0855022100C4002000A6
:102880005008563B2100C50044084504031D492C4F
:102890004A2C522C480803194E2C4F2C522C26003F
:1028A000AF01AF0A2100CF1520005708CF00D0019B
:1028B0004F08FB005008FC009F318427933108002B
:1028C000210049080319652C662C6C2C25006F0823
:1028D0003D0096002100C901440845040319712CEC
:1028E000722CD82C00304502083003194402031C16
:1028F0007A2C7B2C812C08302000CB000030CC00BF
:10290000882C45082000CC00210044082000CB0082
:102910004B08CD0021004E08F1004D08F0002600C4
:102920002708F3002608F20020004D08C900CA015C
:102930004908F4004A08F5009F31AB279431200084
:102940004D08C900CA0149082100C40220004A08F4
:102950002100C53B20004D08C900CA0149082600D6
:10296000A60720004A082600A73D21004408450488
:10297000031DBB2CBC2CCC2C083020004D06031DA5
:10298000C22CC32CCC2C210048080319C82CC92CFC
:10299000CC2C2600AF01AF0A20004D08C900CA01A7
:1029A0004908FB004A08FC009F3184279431052D1B
:1029B00026002F080319DD2CDE2CEA2C0030FB004A
:1029C000FC009F31842794312600AF019D3186257C
:1029D0009431052D21004608031DEF2CF02C052D08
:1029E00020006D086E040319F62CF72CE62CF2017A
:1029F000F20A21004308F4004208F30020006E08A8
:102A00008A006D080A009531E62C08002500C200F6
:102A10004208BC00BD013C08B6003D08B7000730C5
:102A2000B8000030B9009E31FF269531A630250050
:102A3000BE000330BF0036083E07860037083F3D22
:102A400087000119242D262D0130272D0030C100CB
:102A5000410803192C2D2D2D612D4208BC00023098
:102A6000BC35FF3E031D302D3C35213E86008701DD
:102A70004208BD00BE013D08B6003E08B700073061
:102A8000B8000030B9009E31FF269531A4302500F2
:102A9000BF000330C00036083F0784003708403DC0
:102AA0008500000881004208BC000230BC35FF3EB2
:102AB000031D562D3C35203E86008701C83081001D
:102AC000942D4208BC000230BC35FF3E031D642D2E
:102AD0003C35213E860087014208BD00BE013D080D
:102AE000B6003E08B7000730B8000030B9009E318C
:102AF000FF269531A4302500BF000330C000360802
:102B00003F0784003708403D8500000881004208E7
:102B1000BC000230BC35FF3E031D8A2D3C35203EF3
:102B200086008701883081000430BC004208BD0067
:102B3000BE013D08B6003E08B7000730B8000030BF
:102B4000B9009E31FF269531A6302500BF00033025
:102B5000C00036083F0786003708403D87003C0824
:102B60008106080020002108CB0021004603031D38
:102B7000BA2DBB2DD32D20006D086E040319C12D75
:102B8000C22DCF2DF201F20A21004308F4004208C1
:102B9000F30020006E088A006D080A0095319D310F
:102BA000862595316E2E47080319D72DD82D6E2E08
:102BB00020004B08FB00FC01210045087C02031D9E
:102BC000E32D44087B02031CE62DE72DEF2D45087D
:102BD0002000C900210044082000C800F72D200073
:102BE0004B08FB00FC017B08C8007C08C9004808B2
:102BF000CC0021004708F000FF39031D0330F1002D
:102C00004C08F3004B08F20020004C08FB00FC01CC
:102C10007B08F4007C08F5009F31AB27953120003C
:102C20004C08FB007B082100C70720004C08FB0074
:102C3000FC017B082100C4027C08C53B0830200051
:102C40004B02031C242E252E2C2E21004408450463
:102C5000031D2B2E2C2E6E2E20004B084C02031829
:102C6000322E332E4A2E9D316825953120006D0875
:102C70006E0403193C2E3D2ECF2DF2012100430896
:102C8000F4004208F30020006E088A006D080A0074
:102C90009631CF2DCA016D086E040319502E512EA6
:102CA000602EF201F20A21004308F4004208F3000A
:102CB00020006E088A006D080A0096312000CA00C4
:102CC000CA1F632E642E682E9D31682595316B2EA8
:102CD0009D31622595312000ED01EE010800282F7D
:102CE000D8308600223087004408840045088500DB
:102CF0000008C03F0130C4070030C53DD830860011
:102D0000223087000108031D862E872E882E282F4B
:102D10000130A0000030A1000130A2000030A3006B
:102D2000F42E44088600450887000108A8000130F9
:102D3000C4070030C53DD830C8002230C900200883
:102D40004807CA002108493DCB004A0886004B08C5
:102D50008700280881000130A0070030A13D280825
:102D60000319B32EB42EB92E0230A2000030A300F6
:102D7000F42E0330A2000030A300F42E4408860095
:102D8000450887000108C800D830C9002230CA00B1
:102D900020084907CB0021084A3DCC004B0886009B
:102DA0004C088700480881000130C4070030C53D49
:102DB0000130A0070030A13D0130A8022808031D02
:102DC000E22EE32EF42EB92E2308003A0319E92E41
:102DD000F42E2208003A0319702E013A0319912E9D
:102DE000033A0319BE2EF42E033022062304031DDA
:102DF000FA2EFB2E282FA201A301172FDA3025006F
:102E0000D3002230D400D8308600223087004131F0
:102E100001082600C800C90148082500D500260081
:102E200049082500D6008D312F2596316F2ED830D8
:102E30008600223087000108C800C9014908003A0D
:102E40000319232F282F4808803A0319FE2E282F14
:102E500001302600C6020030C73B460A031D342F4E
:102E6000470A031D342F352FE42E08007108FD009A
:102E70007008FC0074087504031D3F2F402F412F7C
:102E8000FF2F7C0886007D08870072088100740887
:102E90007C07F60075087D3DF7007608FF3EF800D8
:102EA000FF30773DF90078088600790887007208BE
:102EB0008100003075020330031974020318612F7A
:102EC000622F632FFF2F7C08013EF60000307D3D0E
:102ED000F7007608860077088700720881007C0872
:102EE000023EF60000307D3DF70076088600770848
:102EF00087007208810074087C07F60075087D3D24
:102F0000F7007608FE3EF800FF30773DF9007808BC
:102F10008600790887007208810074087C07F60033
:102F200075087D3DF7007608FD3EF800FF30773DDF
:102F3000F90078088600790887007208810000305F
:102F400075020730031974020318A72FA82FA92FA1
:102F5000FF2F7C08033EF60000307D3DF700760829
:102F60008600770887007208810074087C07F600E5
:102F700075087D3DF7007608FC3EF800FF30773D90
:102F8000F90078088600790887007208810000300F
:102F900075020930031974020318CF2FD02FD12FD7
:102FA000FF2F7C09F6007D09F700F60A0319F70ADE
:102FB00003307605FA0000307705FB007A08FC073D
:102FC0007B08FD3D7A08F4027B08F53BFC30F405F4
:102FD000FF30F505F92F7C0886007D088700720810
:102FE00081000130F4020030F53B0130FC07003075
:102FF000FD3D74087504031DFE2FFF2FEB2F080005
:10300000093402348334003404340134023480340B
:10301000323408340B3400340234023402340034C5
:1030200002340934043400340034013402340234EC
:1030300000340334053424340034103401340434AF
:103040002434023406340534243406340034013484
:1030500007340534813403340A340034013409342C
:1030600004340134003402340A34003400340434AB
:1030700007340534823402344034003401340734D8
:1030800005340234023440340034013408340B3443
:103090000234023402340234003402340934043479
:1030A0000234003401340234023400340334053471
:1030B000243400341034013404342434023406340B
:1030C00005342434063400340134073405348334A1
:1030D00003340A3400340134093404340334003432
:1030E00002340A34003400340434073405348434A0
:1030F00002344034003401340734053404340234DB
:1031000040340034013478340334463400344134DC
:1031100000344B340034453400342034003453340C
:10312000003465340034723400346934003461345E
:1031300000346C340034203400344E3400347534A0
:1031400000346D3400346234003465340034723439
:1031500000343A34003420340034443400346F34C2
:1031600000346E3400342734003474340034203496
:1031700000347334003468340034693400347034FB
:10318000003420340034613400342034003470348E
:103190000034723400346F340034643400347534D5
:1031A00000346334003474340034203400346C341C
:1031B0000034693400346B34003465340034203416
:1031C00000347434003468340034693400347334A7
:1031D00000342E34003420340034503400344C3465
:1031E0000034453400344134003453340034453421
:1031F000003421340034303403345334003469341F
:103200000034673400346E340034613400346C347C
:10321000003420340034313400343134003420346C
:103220000034533400346F34003466340034743462
:10323000003477340034613400347234003465343F
:103240000034203400344C3400344C3400344334E3
:1032500000342E34003426340334433400344434F0
:1032600000344334003420340034443400346134B6
:103270000034743400346134003420340034493470
:1032800000346E34003474340034653400347234E5
:1032900000346634003461340034633400346534FF
:1032A00000341C3403344334003444340034433495
:1032B000003420340034493400346E340034743423
:1032C00000346534003472340034663400346134C0
:1032D000003463340034653400341A340334553414
:1032E0000034533400344234003420340034433446
:1032F0000034443400344334003420340034543433
:1033000000346534003473340034743400340434CD
:103310000334093404343034313432343334343403
:103320003534363437343834393441344234433424
:103330004434453446340034123401340034023409
:10334000EF34023401340834A034A034043400349F
:0C3350000134003401340234053401342F
:103A6200080008000800080008000800FF300800ED
:103A7200FF300800FF300800FF3008000030080067
:103A820000300800F001F101080021004A08080096
:103A9200FF30F000FF30F100080008302000A500E0
:103AA200A4010800FF30F000FF30F10008002200FE
:103AB2000E1521000E110800803420348834203481
:103AC20000342000A401A501C830A4000800083079
:103AD2002000A5008430A400080008302000A100C6
:103AE2008030A000080020006408E0006308DF00C6
:103AF200843151249D3108003C3021009904270073
:103B02001B169B170B178B1708002600A601A7018F
:103B12002100C701C401C5012000ED01EE0108002A
:103B22002000981318139812181618141110210057
:103B320011140B1708002600A601A7012100C701D6
:103B4200C401C5012000ED01EE01080064008001FE
:103B520001310130FE020030FF3B7F087E04031D6D
:103B6200A82D0034D2302500CB000230CC00013029
:103B7200CD000030CE00023090316B209D31080024
:103B82007208031DC52DC62DC82DFF30CF2D3B3029
:103B9200F00020006F089D31DF259D3108002500CF
:103BA20037082600A500250036082600A4002100BB
:103BB2008C160C168E1122008E15080070088600D5
:103BC2000330870054308400033085000730F10051
:103BD20016001A00F10BE92D00300800543086005F
:103BE2000330870070088400033085000730F1003D
:103BF20016001A00F10BF92D0030080021008E1674
:103C02000E12243023009E0090309D0000309C0054
:103C120067309B009C0108309F0008002500B70018
:103C22003708B6000230B635FF3E031D142E363576
:103C3200243E86008701010D010D01390800F600BE
:103C42009D3186259E3173082000EE007208ED003A
:103C520076082100C7007108C5007008C400750805
:103C6200C3007408C2000800F20002307206031D8D
:103C72003B2E3C2E4B2E700871040319412E422E0E
:103C82004B2E23009E152000111E482E492E442E35
:103C920023009A0100300800F1007108F0000230A0
:103CA200F035FF3E031D512E7035213E86008701FF
:103CB20081017108F0000230F035FF3E031D5D2ED8
:103CC2007035203E86008701843081000800FA00AA
:103CD2007A08F600F7017608F0007708F10007305D
:103CE200F2000030F3009E31C0269E31A630F8006B
:103CF2000330F9007008780786007108793D870063
:103D02000108023908002500C0004008BC00BD01BE
:103D12003C08B6003D08B7000730B8000030B900D3
:103D22009E31FF269E31A6302500BE000330BF0023
:103D320036083E07860037083F3D870001080239F2
:103D420008002500C0004008BC00BD013C08B600C8
:103D52003D08B7000730B8000030B9009E31FF2699
:103D62009E31A6302500BE000330BF0036083E0754
:103D7200860037083F3D8700010801390800F40139
:103D8200F501701CC52EC62ECA2E7208F4077308E0
:103D9200F53D0130F235F30D890BCB2E0130F136B2
:103DA200F00C890BD02E70087104031DD92EDA2E67
:103DB200C22E7508F1007408F00008002000DE0031
:103DC2005B08EE005A08ED005D082100C3002000E8
:103DD2005C082100C20020005E08C900FF39031DF3
:103DE2000330CA005908CC005808CB005908CE004D
:103DF2005808CD009331BF239E3108002500BA0137
:103E0200BB01361C052F062F0A2F3808BA073908BE
:103E1200BB3D0130B835B90D890B0B2F0130B736D8
:103E2200B60C890B102F36083704031D192F1A2FD1
:103E3200022F3B08B7003A08B60008002500C2006E
:103E42004208BE00BF013E08B6003F08B700073077
:103E5200B8000030B9009E31FF269F31A230250004
:103E6200C0000330C1003608400786003708413DD4
:103E72008700403FBC00413FBD0008002500B7005D
:103E8200B801B901532F0430890B452F22008C163B
:103E92000430890B4A2F22008C1201302500B8070A
:103EA2000030B93D3908803AB60080303602031D31
:103EB2005C2F37083802031C5F2F602F442F080045
:103EC20000340034003400340034003400349034C0
:103ED20020349134203401340A3400349B342034A9
:103EE200DB3420344034403400341B3421341C345D
:103EF200213401340A340034263421346634213426
:103F020040344034003400309E3168269F31003AFC
:103F1200031D8C2F8D2FAA2F2100CF19912F932FA4
:103F22000130942F00302000C800A4014808031972
:103F32009B2F9C2FA12F7B08A500C830A400A52F82
:103F42007B08A5008830A4000830FD007D08210010
:103F5200CF0608007308F9007208F8007108F7002C
:103F62007008F600C82F78088400790885000008D8
:103F7200FA000130F8070030F93D7608860077082C
:103F820087007A0881000130F6070030F73D0130E2
:103F9200F4020030F53B740A031DD32F750A031D8A
:103FA200D32FD42FB42F0800FA007A080319DA2F7E
:103FB200DB2FFF2F05307A02031CE02FE12FE22FC7
:103FC200FF2F7A08F600F7017608F0007708F10073
:103FD2000730F2000030F3009E31C0269F31A63038
:103FE200F8000330F9007008780786007108793DFF
:0E3FF200870001147A089E314D269F31080089
:020000040001F9
:08000000FF3FFF3FFF3FFF3F00
:04000E00E40FCF37F5
:00000001FF
